{
  "contractName": "City",
  "abi": [
    {
      "constant": true,
      "inputs": [
        {
          "name": "gameId",
          "type": "uint256"
        },
        {
          "name": "x",
          "type": "uint8"
        },
        {
          "name": "y",
          "type": "uint8"
        }
      ],
      "name": "getPlot",
      "outputs": [
        {
          "name": "",
          "type": "address"
        },
        {
          "name": "",
          "type": "uint8"
        },
        {
          "name": "",
          "type": "uint32"
        }
      ],
      "payable": false,
      "stateMutability": "view",
      "type": "function"
    },
    {
      "constant": false,
      "inputs": [
        {
          "name": "gameId",
          "type": "uint256"
        }
      ],
      "name": "calculateIncome",
      "outputs": [],
      "payable": false,
      "stateMutability": "nonpayable",
      "type": "function"
    },
    {
      "constant": true,
      "inputs": [
        {
          "name": "",
          "type": "uint256"
        }
      ],
      "name": "games",
      "outputs": [
        {
          "name": "boardSize",
          "type": "uint8"
        },
        {
          "name": "partySize",
          "type": "uint8"
        },
        {
          "name": "round",
          "type": "uint8"
        },
        {
          "name": "joinLimitAt",
          "type": "uint64"
        },
        {
          "name": "startedAt",
          "type": "uint64"
        },
        {
          "name": "buyIn",
          "type": "uint128"
        }
      ],
      "payable": false,
      "stateMutability": "view",
      "type": "function"
    },
    {
      "constant": false,
      "inputs": [
        {
          "name": "gameId",
          "type": "uint256"
        },
        {
          "name": "x",
          "type": "uint8"
        },
        {
          "name": "y",
          "type": "uint8"
        },
        {
          "name": "zone",
          "type": "uint8"
        },
        {
          "name": "price",
          "type": "uint32"
        }
      ],
      "name": "bid",
      "outputs": [],
      "payable": false,
      "stateMutability": "nonpayable",
      "type": "function"
    },
    {
      "constant": false,
      "inputs": [
        {
          "name": "gameId",
          "type": "uint256"
        }
      ],
      "name": "_resolveBids",
      "outputs": [],
      "payable": false,
      "stateMutability": "nonpayable",
      "type": "function"
    },
    {
      "constant": true,
      "inputs": [
        {
          "name": "gameId",
          "type": "uint256"
        }
      ],
      "name": "getPlayers",
      "outputs": [
        {
          "name": "",
          "type": "address[]"
        },
        {
          "name": "",
          "type": "int256[]"
        }
      ],
      "payable": false,
      "stateMutability": "view",
      "type": "function"
    },
    {
      "constant": false,
      "inputs": [
        {
          "name": "_buyIn",
          "type": "uint256"
        }
      ],
      "name": "createGame",
      "outputs": [],
      "payable": true,
      "stateMutability": "payable",
      "type": "function"
    },
    {
      "constant": true,
      "inputs": [],
      "name": "gameCount",
      "outputs": [
        {
          "name": "",
          "type": "uint256"
        }
      ],
      "payable": false,
      "stateMutability": "view",
      "type": "function"
    },
    {
      "constant": false,
      "inputs": [
        {
          "name": "gameId",
          "type": "uint256"
        },
        {
          "name": "x",
          "type": "uint8"
        },
        {
          "name": "y",
          "type": "uint8"
        },
        {
          "name": "zone",
          "type": "uint8"
        },
        {
          "name": "owner",
          "type": "address"
        },
        {
          "name": "price",
          "type": "uint32"
        }
      ],
      "name": "_setPlot",
      "outputs": [],
      "payable": false,
      "stateMutability": "nonpayable",
      "type": "function"
    },
    {
      "constant": false,
      "inputs": [
        {
          "name": "gameId",
          "type": "uint256"
        }
      ],
      "name": "joinGame",
      "outputs": [],
      "payable": true,
      "stateMutability": "payable",
      "type": "function"
    },
    {
      "constant": false,
      "inputs": [
        {
          "name": "gameId",
          "type": "uint256"
        },
        {
          "name": "col",
          "type": "uint8"
        },
        {
          "name": "row",
          "type": "uint8"
        }
      ],
      "name": "getPlotIncome",
      "outputs": [
        {
          "name": "",
          "type": "address"
        },
        {
          "name": "",
          "type": "uint32"
        }
      ],
      "payable": false,
      "stateMutability": "nonpayable",
      "type": "function"
    },
    {
      "inputs": [],
      "payable": false,
      "stateMutability": "nonpayable",
      "type": "constructor"
    },
    {
      "anonymous": false,
      "inputs": [
        {
          "indexed": true,
          "name": "gameId",
          "type": "uint256"
        },
        {
          "indexed": false,
          "name": "boardSize",
          "type": "uint256"
        },
        {
          "indexed": false,
          "name": "partySize",
          "type": "uint256"
        },
        {
          "indexed": false,
          "name": "joinLimitAt",
          "type": "uint256"
        },
        {
          "indexed": false,
          "name": "buyIn",
          "type": "uint256"
        }
      ],
      "name": "GameCreated",
      "type": "event"
    },
    {
      "anonymous": false,
      "inputs": [
        {
          "indexed": true,
          "name": "gameId",
          "type": "uint256"
        },
        {
          "indexed": false,
          "name": "player",
          "type": "address"
        }
      ],
      "name": "Join",
      "type": "event"
    },
    {
      "anonymous": false,
      "inputs": [
        {
          "indexed": true,
          "name": "gameId",
          "type": "uint256"
        }
      ],
      "name": "GameStart",
      "type": "event"
    },
    {
      "anonymous": false,
      "inputs": [
        {
          "indexed": true,
          "name": "gameId",
          "type": "uint256"
        },
        {
          "indexed": false,
          "name": "round",
          "type": "uint256"
        },
        {
          "indexed": false,
          "name": "owner",
          "type": "address"
        },
        {
          "indexed": false,
          "name": "x",
          "type": "uint8"
        },
        {
          "indexed": false,
          "name": "y",
          "type": "uint8"
        },
        {
          "indexed": false,
          "name": "zone",
          "type": "uint8"
        }
      ],
      "name": "PlotSet",
      "type": "event"
    },
    {
      "anonymous": false,
      "inputs": [
        {
          "indexed": false,
          "name": "label",
          "type": "string"
        },
        {
          "indexed": false,
          "name": "val",
          "type": "uint256"
        }
      ],
      "name": "DebugU",
      "type": "event"
    }
  ],
  "bytecode": "0x61012060405260006080908152600160a052600360c052600660e052600c610100526200003190600290600562000046565b503480156200003f57600080fd5b5062000104565b600183019183908215620000ce5791602002820160005b838211156200009d57835183826101000a81548160ff021916908360ff16021790555092602001926001016020816000010492830192600103026200005d565b8015620000cc5782816101000a81549060ff02191690556001016020816000010492830192600103026200009d565b505b50620000dc929150620000e0565b5090565b6200010191905b80821115620000dc57805460ff19168155600101620000e7565b90565b61145680620001146000396000f3fe6080604052600436106100a25763ffffffff7c0100000000000000000000000000000000000000000000000000000000600035041662cba77781146100a757806302bb7aba14610112578063117a5b901461013e578063159b3ec1146101bf57806328b5a2e91461020f578063460e20491461023957806348e837b9146102fc5780634d1975b414610319578063c183554d14610340578063efaa55a01461039f575b600080fd5b3480156100b357600080fd5b506100e2600480360360608110156100ca57600080fd5b5080359060ff602082013581169160400135166103bc565b60408051600160a060020a03909416845260ff909216602084015263ffffffff1682820152519081900360600190f35b34801561011e57600080fd5b5061013c6004803603602081101561013557600080fd5b5035610488565b005b34801561014a57600080fd5b506101686004803603602081101561016157600080fd5b50356104eb565b6040805160ff97881681529587166020870152939095168484015267ffffffffffffffff91821660608501521660808301526fffffffffffffffffffffffffffffffff90921660a082015290519081900360c00190f35b3480156101cb57600080fd5b5061013c600480360360a08110156101e257600080fd5b50803590602081013560ff908116916040810135821691606082013516906080013563ffffffff16610552565b34801561021b57600080fd5b5061013c6004803603602081101561023257600080fd5b50356108ea565b34801561024557600080fd5b506102636004803603602081101561025c57600080fd5b5035610a5b565b604051808060200180602001838103835285818151815260200191508051906020019060200280838360005b838110156102a757818101518382015260200161028f565b50505050905001838103825284818151815260200191508051906020019060200280838360005b838110156102e65781810151838201526020016102ce565b5050505090500194505050505060405180910390f35b61013c6004803603602081101561031257600080fd5b5035610a63565b34801561032557600080fd5b5061032e610d85565b60408051918252519081900360200190f35b34801561034c57600080fd5b5061013c600480360360c081101561036357600080fd5b50803590602081013560ff908116916040810135821691606082013516906080810135600160a060020a03169060a0013563ffffffff16610d8b565b61013c600480360360208110156103b557600080fd5b503561108f565b600083815260208190526040812080548291829160ff168210610417576040805160e560020a62461bcd028152602060048201526011602482015260008051602061140b833981519152604482015290519081900360640190fd5b805460ff90811695909502959095018416600090815260039095016020525050604090922054600160a060020a0381169474010000000000000000000000000000000000000000820490921693507501000000000000000000000000000000000000000000900463ffffffff169150565b6000818152602081905260408120905b815460ff90811690821610156104e65760005b825460ff90811690821610156104dd5760008060006104cb8785876103bc565b5050600190940193506104ab92505050565b50600101610498565b505050565b6000602081905290815260409020805460019091015460ff8083169261010081048216926201000082049092169167ffffffffffffffff630100000083048116926b010000000000000000000000900416906fffffffffffffffffffffffffffffffff1686565b60008581526020819052604090208054600160ff909116116105ac576040805160e560020a62461bcd028152602060048201526011602482015260008051602061140b833981519152604482015290519081900360640190fd5b805460006b01000000000000000000000090910467ffffffffffffffff161161061f576040805160e560020a62461bcd02815260206004820152601060248201527f67616d65206469646e7420737461727400000000000000000000000000000000604482015290519081900360640190fd5b61271063ffffffff83161261067e576040805160e560020a62461bcd02815260206004820152601060248201527f7072696365206f766572206c696d697400000000000000000000000000000000604482015290519081900360640190fd5b33600090815260048201602052604090205463ffffffff8316126106ec576040805160e560020a62461bcd02815260206004820152601860248201527f62616c616e63652063616e7420676f206e656761746976650000000000000000604482015290519081900360640190fd5b805460ff908116850286011660008181526005830160205260409020805463ffffffff75010000000000000000000000000000000000000000009091048116908516111561087957604080516060808201835233825260ff888116602080850191825263ffffffff8a811686880190815260008a815260058c018452889020965187549451915173ffffffffffffffffffffffffffffffffffffffff19909516600160a060020a039091161774ff000000000000000000000000000000000000000019167401000000000000000000000000000000000000000091909516029390931778ffffffff000000000000000000000000000000000000000000191675010000000000000000000000000000000000000000009290931691909102919091179092558251918201859052828252600a828401527f62696420676f74206974000000000000000000000000000000000000000000009082015290517f9cdf80d27a70c6f6d8b0fb79cedf271c624b8fc46ed41a6cf1d5d586bd01ad7f916080908290030190a16108e0565b6040805160208101849052818152600d818301527f6269642066656c7420666c617400000000000000000000000000000000000000606082015290517f9cdf80d27a70c6f6d8b0fb79cedf271c624b8fc46ed41a6cf1d5d586bd01ad7f9181900360800190a15b5050505050505050565b60008181526020819052604090208054600160ff90911611610944576040805160e560020a62461bcd028152602060048201526011602482015260008051602061140b833981519152604482015290519081900360640190fd5b805460006b01000000000000000000000090910467ffffffffffffffff16116109b7576040805160e560020a62461bcd02815260206004820152601060248201527f67616d65206469646e7420737461727400000000000000000000000000000000604482015290519081900360640190fd5b60005b815460ff168110156104e65760005b825460ff16811015610a525782546040805160ff9092168302840160208301819052818352600b838301527f7265736f6c7665206269640000000000000000000000000000000000000000006060840152905190917f9cdf80d27a70c6f6d8b0fb79cedf271c624b8fc46ed41a6cf1d5d586bd01ad7f919081900360800190a1506001016109c9565b506001016109ba565b606080915091565b68056bc75e2d631000008110610ac3576040805160e560020a62461bcd02815260206004820152600f60248201527f62757920696e20746f6f20686967680000000000000000000000000000000000604482015290519081900360640190fd5b348114610b1a576040805160e560020a62461bcd02815260206004820152600c60248201527f73656e642062616c616e63650000000000000000000000000000000000000000604482015290519081900360640190fd5b6004610b24611326565b506040805160e08101825260ff838116825260026020808401828152600085870181815267ffffffffffffffff610e104201811660608901908152608089018481526fffffffffffffffffffffffffffffffff8d811660a08c019081528c51878152808a018e5260c08d019081526001805481018082558952888b529d9097208c518154995197519551945160ff19909a16908d161761ff001916610100978d16979097029690961762ff000019166201000094909b1693909302999099176affffffffffffffff00000019166301000000918416919091021772ffffffffffffffff000000000000000000000019166b0100000000000000000000009590921694909402178155915196820180546fffffffffffffffffffffffffffffffff191697909516969096179093559351805193948594610c699385019290910190611364565b509050506001547f49f51c2844caf12143ce2913b7e0d1e06ecd927cd95d302bde9def52d149141a8260000151836020015184606001518560a00151604051808560ff1681526020018460ff1681526020018367ffffffffffffffff168152602001826fffffffffffffffffffffffffffffffff16815260200194505050505060405180910390a2600180546000908152602081815260408083206002018054808601825590845282842001805473ffffffffffffffffffffffffffffffffffffffff191633908117909155845484528184208185526004018352928190206103e890559254835192835292517f2da5c788c7d6057f6fb69078319d8082cfdae75253679e8d00c4c9baafaca9f69281900390910190a2505050565b60015481565b60008681526020819052604090208054600160ff90911611610de5576040805160e560020a62461bcd028152602060048201526011602482015260008051602061140b833981519152604482015290519081900360640190fd5b805460006b01000000000000000000000090910467ffffffffffffffff1611610e58576040805160e560020a62461bcd02815260206004820152601060248201527f67616d65206469646e7420737461727400000000000000000000000000000000604482015290519081900360640190fd5b61271063ffffffff831612610eb7576040805160e560020a62461bcd02815260206004820152601060248201527f7072696365206f766572206c696d697400000000000000000000000000000000604482015290519081900360640190fd5b600160a060020a038316600090815260048201602052604081205413610f27576040805160e560020a62461bcd02815260206004820152600f60248201527f706c617965722069732062726f6b650000000000000000000000000000000000604482015290519081900360640190fd5b6000868260000160009054906101000a900460ff1687020160ff16905060606040519081016040528085600160a060020a031681526020018660ff1681526020018463ffffffff1681525082600301600083815260200190815260200160002060008201518160000160006101000a815481600160a060020a030219169083600160a060020a0316021790555060208201518160000160146101000a81548160ff021916908360ff16021790555060408201518160000160156101000a81548163ffffffff021916908363ffffffff160217905550905050600060019050887febbb82d8acb3aa608cae1b278030e79b9d152dd2e7d68bdc602b3c27c8c7107582878b8b8b604051808660ff16815260200185600160a060020a0316600160a060020a031681526020018460ff1660ff1681526020018360ff1660ff1681526020018260ff1660ff1681526020019550505050505060405180910390a2505050505050505050565b60008181526020819052604090208054600160ff909116116110e9576040805160e560020a62461bcd028152602060048201526011602482015260008051602061140b833981519152604482015290519081900360640190fd5b80546b010000000000000000000000900467ffffffffffffffff1615611159576040805160e560020a62461bcd02815260206004820152601660248201527f63616e74206a6f696e2067616d65207374617274656400000000000000000000604482015290519081900360640190fd5b336000908152600482016020526040902054156111c0576040805160e560020a62461bcd02815260206004820152600f60248201527f63616e74206a6f696e2074776963650000000000000000000000000000000000604482015290519081900360640190fd5b60018101546fffffffffffffffffffffffffffffffff16341461122d576040805160e560020a62461bcd02815260206004820152601560248201527f6d757374207061792065786163742062757920696e0000000000000000000000604482015290519081900360640190fd5b60028101805460018101825560009182526020808320909101805473ffffffffffffffffffffffffffffffffffffffff1916339081179091558083526004840182526040928390206103e890558251908152915184927f2da5c788c7d6057f6fb69078319d8082cfdae75253679e8d00c4c9baafaca9f692908290030190a28054600282015461010090910460ff16141561132257805472ffffffffffffffff000000000000000000000019166b0100000000000000000000004267ffffffffffffffff160217815560405182907fb5e8a4470f7bcac7f2c0f3e23471bd7016a9f6f049884cd27dfa8960f361287b90600090a25b5050565b6040805160e08101825260008082526020820181905291810182905260608082018390526080820183905260a082019290925260c081019190915290565b8280548282559060005260206000209081019282156113c6579160200282015b828111156113c6578251825473ffffffffffffffffffffffffffffffffffffffff1916600160a060020a03909116178255602090920191600190910190611384565b506113d29291506113d6565b5090565b61140791905b808211156113d257805473ffffffffffffffffffffffffffffffffffffffff191681556001016113dc565b9056fe67616d6520646f65736e74206578697374000000000000000000000000000000a165627a7a7230582008d005099a84aa0008c38cb6018626c8644ef45eb1e303c0d53de279700e87930029",
  "source": "pragma solidity >=0.4.25 <0.6.0;\n\ncontract City {\n    struct Game {\n        // a board size\n        uint8 boardSize;\n        // up to how many players the game MUST have\n        uint8 partySize;\n        // keep track of rounds, starting from 0\n        uint8 round;\n        // limit of time for all players to join a session\n        uint64 joinLimitAt;\n        // exact time the session stated, 0 means it didn't\n        uint64 startedAt;\n        // price in wei for players to join\n        uint128 buyIn;\n        // just a list of players\n        address[] players;\n        // plots of land\n        mapping(uint => Plot) plots;\n        // once players join they get a balance initialized to their wallet\n        mapping(address => int) balances;\n        // collect bids plotId -> top bid\n        mapping(uint => Plot) bids;\n    }\n\n    // all plots start owned by 0x0, and they are Residence, of value 1\n    struct Plot {\n        address owner;\n        // 0: residential, 1: commercial, 2: industrial\n        uint8 zone;\n        // value declared by the player. Special case is val 0, which becomes 1.\n        uint32 value;\n    }\n\n    // enum PlotType { Residential, Commercial, Industrial } -- garbage enum in solidity\n\n    event GameCreated(uint indexed gameId, uint boardSize, uint partySize, uint joinLimitAt, uint buyIn);\n    event Join(uint indexed gameId, address player);\n    event GameStart(uint256 indexed gameId);\n    event PlotSet(uint indexed gameId, uint round, address owner, uint8 x, uint8 y, uint8 zone);\n\n    // DEBUG ONLY -- RM FROM PROD\n    event DebugU(string label, uint val);\n    \n    mapping(uint => Game) public games;\n    uint public gameCount;\n\n    int constant INIT_POINTS = 1000;\n    uint8 constant RESIDENTIAL = 0;\n    uint8 constant COMMERCIAL = 1;\n    uint8 constant INDUSTRIAL = 2;\n    uint8[5] INCOME = [0, 1, 3, 6, 12];\n    // int8[4][2] NEIGHBORDELTAS = [[-1, 0], [1, 0], [0, -1], [0, 1]];\n\n    constructor() public {\n        // what?\n    }\n\n    function createGame(uint _buyIn) public payable {\n        require(_buyIn < 100 ether, \"buy in too high\");\n        require(msg.value == _buyIn, \"send balance\");\n        uint8 _boardSize = 4;\n        Game memory game = Game({\n            // TODO fix those arbitrary values\n            boardSize: _boardSize,\n            partySize: 2,\n            round: 0,\n            // arbitrary limit\n            joinLimitAt: uint64(now + 1 hours),\n            startedAt: 0,\n            buyIn: uint128(_buyIn),\n            players: new address[](0)\n        });\n        gameCount++;\n        games[gameCount] = game;\n        emit GameCreated(gameCount, game.boardSize, game.partySize, game.joinLimitAt, game.buyIn);\n\n        games[gameCount].players.push(msg.sender);\n        // 1k initial balance!\n        games[gameCount].balances[msg.sender] = INIT_POINTS;\n        // _initBoard(boardId);\n        emit Join(gameCount, msg.sender);\n    }\n\n    function joinGame(uint gameId) public payable {\n        Game storage game = games[gameId];\n        require(game.boardSize > 1, \"game doesnt exist\");\n        require(game.startedAt == 0, \"cant join game started\");\n        require(game.balances[msg.sender] == 0, \"cant join twice\");\n        require(game.buyIn == msg.value, \"must pay exact buy in\");\n\n        game.players.push(msg.sender);\n        // 1k initial balance!\n        game.balances[msg.sender] = INIT_POINTS;\n        emit Join(gameId, msg.sender);\n\n        if (game.players.length == game.partySize) {\n            game.startedAt = uint64(now);\n            emit GameStart(gameId);\n        }\n    }\n\n    /// @dev debug so we can set any cell\n    function _setPlot(uint gameId, uint8 x, uint8 y, uint8 zone, address owner, uint32 price) public {\n        Game storage game = games[gameId];\n        require(game.boardSize > 1, \"game doesnt exist\");\n        require(game.startedAt > 0, \"game didnt start\");\n        require(price < INIT_POINTS * 10, \"price over limit\");\n        require(game.balances[owner] > 0, \"player is broke\");\n        \n        // TODO some validation on the cell\n\n        uint plotId = (y * game.boardSize) + x;\n        game.plots[plotId] = Plot({\n            owner: owner,\n            zone: zone,\n            value: price\n        });\n        \n        uint8 round = 1;\n        \n        emit PlotSet(gameId, round, owner, x, y, zone);\n    }\n\n    function getPlot(uint gameId, uint8 x, uint8 y) public view returns (address, uint8, uint32) {\n        Game storage game = games[gameId];\n        require (game.boardSize > 0, \"game doesnt exist\");\n        Plot storage plot = game.plots[(y * game.boardSize) + x];\n        return (plot.owner, plot.zone, plot.value);\n    }\n\n    /// @notice any player can put a bid for that round, only the top one per square will stay\n    function bid(uint gameId, uint8 x, uint8 y, uint8 zone, uint32 price) public {\n        Game storage game = games[gameId];\n        require(game.boardSize > 1, \"game doesnt exist\");\n        require(game.startedAt > 0, \"game didnt start\");\n        require(price < INIT_POINTS * 10, \"price over limit\");\n        require(game.balances[msg.sender] > price, \"balance cant go negative\");\n\n        uint plotId = (y * game.boardSize) + x;\n\n        Plot storage currentBid = game.bids[plotId];\n\n        // we should allow bids that may be less than the current plot price\n        //   because the owner may be lowering the price of the plot at that time\n\n        // incoming bid is higher than an existing bid (if any)\n        if (price > currentBid.value) {\n            // silently discard possible existing bid\n            game.bids[plotId] = Plot({\n                owner: msg.sender,\n                zone: zone,\n                value: price\n            });\n            emit DebugU(\"bid got it\", plotId);\n        } else {\n            // TODO maybe revert the loser bid?\n            emit DebugU(\"bid felt flat\", plotId);\n        }\n\n        // maybe we should check user balance here BUT that would require a full round simulation, so nevermind.\n    }\n\n    /// @dev run through all the bids for current round, and update the grid\n    function _resolveBids(uint gameId) public {\n        Game storage game = games[gameId];\n        require(game.boardSize > 1, \"game doesnt exist\");\n        require(game.startedAt > 0, \"game didnt start\");\n\n        for (uint x = 0; x < game.boardSize; x++) {\n            for (uint y = 0; y < game.boardSize; y++) {\n                uint plotId = (y * game.boardSize) + x;\n                // just debug for now\n                // ...TODO. .... game.bids[plotId]\n                emit DebugU(\"resolve bid\", plotId);\n            }\n        }\n    }\n\n    function calculateIncome(uint gameId) public view {\n        Game storage game = games[gameId];\n        for (uint8 col = 0; col < game.boardSize; ++col) {\n            for (uint8 row = 0; row < game.boardSize; ++row) {\n                address player;\n                uint8 zone;\n                uint32 value;\n                (player, zone, value) = getPlot(gameId, row, col);\n                uint score = 0;\n                // for (uint8 neighborIndex = 0; neighborIndex < NEIGHBORDELTAS.length; ++neighborIndex) {\n                //     uint8 deltaX = NEIGHBORDELTAS[neighborIndex][0];\n                //     uint8 deltaY = NEIGHBORDELTAS[neighborIndex][1];\n                //     if ((deltaX >= 0 || row > 0) && (deltaX <= 0 || row < game.boardSize) &&\n                //        (deltaY >= 0 || col > 0) && (deltaY <= 0 || col < game.boardSize)) {\n                //         // This is a valid neighbor so get it...\n                //         address neighborPlayer;\n                //         uint8 neighborZone;\n                //         uint32 neighborValue;\n                //         (neighborPlayer, neighborZone, neighborValue) = getPlot(gameId, row + deltaX, row + deltaY);\n\n                //         // ... and apply neighborhood counting rules\n                //         if (zone == RESIDENTIAL && neighborZone == COMMERCIAL) {\n                //             score++;\n                //         } else if (zone == COMMERCIAL && neighborZone == INDUSTRIAL) {\n                //             score++;\n                //         } else if (zone == INDUSTRIAL && neighborZone == RESIDENTIAL) {\n                //             score++;\n                //         }\n                //     }\n                // }\n                // uint32 income = INCOME[score];\n                // game.balances[player] += income;\n            }\n        }\n    }\n\n    function getPlayers(uint gameId) external view returns (address[] memory, uint32[] memory) {\n        // Game storage game = games[gameId];\n        // address[] memory players = new address[](game.players.length);\n        // players.push(game.players);\n        // uint32[] memory balances = new uint32[](game.balances.length);\n        // balances.push(game.balances);\n        // return (players, balances);\n    }\n\n    // function _calcRules()\n\n    // TODO -- this is the ideal scenario\n    // function amount()...\n    // // salt should not repeat among players and should change at least every round\n    // function hashMyMove(uint gameId, uint round, uint landId, uint bid, bytes1 property, uint salt) public view returns (bytes32) {\n    //     // TODO a simple hash over the params ABI packed\n    // }\n    // function submitMove(bytes32 moveHash) public {\n    //     // calc the players moves\n    // }\n\n    // a non-authed version of the above!\n    // function submitMove2(params...) {\n\n    // }\n}\n",
  "sourcePath": "/Users/fps/workspace/eth-denver-2019/contract/contracts/City.sol",
  "compiler": {
    "name": "solc",
    "version": "0.5.0+commit.1d4f565a.Emscripten.clang"
  },
  "schemaVersion": "3.0.2",
  "updatedAt": "2019-02-16T23:54:10.796Z",
  "devdoc": {
    "methods": {
      "_resolveBids(uint256)": {
        "details": "run through all the bids for current round, and update the grid"
      },
      "_setPlot(uint256,uint8,uint8,uint8,address,uint32)": {
        "details": "debug so we can set any cell"
      }
    }
  },
  "userdoc": {
    "methods": {
      "bid(uint256,uint8,uint8,uint8,uint32)": {
        "notice": "any player can put a bid for that round, only the top one per square will stay"
      }
    }
  }
}